:020000040800F2
:1000000038290020E1020008C1110008C3110008CE
:10001000C7110008CB110008CF1100080000000034
:10002000000000000000000000000000D3110008E4
:10003000D5110008000000003F7800081D150008D9
:10004000FB020008FB020008FB020008FB0200089C
:10005000FB020008FB020008FB020008792F0008E1
:10006000FB020008FB020008FB020008FB0200087C
:1000700003300008ED2F0008FB020008C52300082C
:10008000FB020008FB020008FB020008FB0200085C
:10009000FB020008FB020008FB020008B92100086F
:1000A000FB020008FB020008FB020008FB0200083C
:1000B0005D140008FB020008FB020008FB020008B8
:1000C000FB020008FB020008FB020008FB0200081C
:1000D000FB02000867230008FB020008FB0200087F
:1000E000FB020008FB020008FB020008DFF80CD04E
:1000F0000AF0C4F9004800471F030008382900200F
:100100000CB50020019000906C48006840F48030ED
:100110006A49086000BF6948006800F40030009038
:100120000198401C0190009818B90198B0F5A06F93
:10013000F1D16248006800F4003010B10120009055
:1001400001E0002000900098012843D15C4800683D
:1001500040F010005A4908600846006820F003008B
:1001600008600846006840F0020008605348406894
:10017000524948600846406848600846406840F474
:10018000806048600846406820F47C10486008465B
:10019000406840F4E81048600846006840F080700D
:1001A000086000BF4548006800F000700028F9D0E2
:1001B0004248406820F003004049486008464068D3
:1001C00040F00200486000BF3C48406800F00C006E
:1001D0000828F9D10CBD10B5FFF792FF10BD10B57E
:1001E0003648006840F0010034490860084640681D
:1001F000344908403149486008460068324908409F
:100200002E4908600846006820F4802008600846EF
:10021000406820F4FE0048604FF41F008860FFF73C
:10022000DAFF4FF000602949086010BD10B50021C9
:1002300000200022214B5B6803F00C0121B104294E
:1002400006D0082928D107E0214B224C236027E063
:100250001F4B204C236023E0184B5B6803F47010A5
:10026000164B5B6803F48032022303EB904022B903
:10027000194B4343174C23600DE0104B5B6803F4AC
:10028000003323B1144B4343124C236003E0104B63
:100290004343104C236003E00D4B0E4C236000BF22
:1002A00000BF064B5B68C3F303130C4CE15C094BC6
:1002B0001B68CB40074C236010BD000000100240BB
:1002C000002002400000FFF8FFFFF6FE08ED00E00E
:1002D00000127A000000002000093D000400002008
:1002E0000648804706480047FEE7FEE7FEE7FEE7D0
:1002F000FEE7FEE7FEE7FEE7FEE7FEE7DF010008B8
:10030000ED00000801F059F80923874A00218748C9
:1003100006F04EFE02E0FF2007F0D1F8FBE710B533
:1003200005F09AFF0323824A0021824806F040FE2E
:1003300006F07FF8002010BD10B57F4801F018FED0
:1003400000F024FF10BD10B57C4800787C49097886
:10035000884203D07A48007801F008FF7848007896
:1003600076490870774876490978405C50BB7648F2
:10037000007870B901217248007800F006FF7248D9
:100380000078401C704908700021032000F06AFFCB
:100390007EE06D48007814280EDB00206A49087062
:1003A00067480078401C66490870084600780428B1
:1003B0006EDD012008706BE063480078401C6249E4
:1003C000087065E05F485E490978405C01285FD1AC
:1003D0005E485B490978405C68B90121584800785B
:1003E00000F0D0FE01205949554A12788854002067
:1003F0005749087012E0554851490978405C042873
:100400000CD101214E48007800F0B9FE05214F487B
:100410004B4A1278815400204D4908704C480078AE
:10042000401C4B490870084600780A2830DB002041
:100430000870464842490978405C082805D10421E3
:1004400042483F4A1278815410E040483C490978BC
:10045000405C052805D104213C48394A1278815472
:1004600004E000203949364A127888540020354982
:10047000334A127888543449087031480078401C57
:100480002F49087008460078042801DD0120087013
:1004900010BD00BF02E0052007F0D8F8FBE701F02F
:1004A00024FE0BE02B480078012804D1FFF744FF1D
:1004B000002028490870012007F0C8F8F2E726A1BB
:1004C000284809F0D2FF28A12B4809F0CEFF00BF31
:1004D00002E0642007F0BAF8FBE786B001F0A1FF64
:1004E000052101A806F0CAF9244908601AE06A4605
:1004F0004FF496712148006806F094FA04469DF87E
:1005000000000A280AD09DF8000038B9322221469E
:100510001B4809F07FFF1A4802F0D1F8052007F0C8
:1005200095F800BFE3E700007C0400208505000883
:10053000EC0200200503000810130020200000201A
:100540001D00002093000020210000208E000020CC
:100550001A000020C300002073627362736273622A
:1005600000000000A611002066616E6766616E677C
:100570003034323900000000D8110020140000206F
:10058000180D002000F0F8F8044803F014FC04E013
:1005900000F041FD012007F059F8F9E722000020A2
:1005A000FC4A12788243FB4B1A7061B310281CD0AE
:1005B00008DC01280DD002280ED004280FD008280E
:1005C0001FD10FE0202813D0402814D0802818D144
:1005D00014E0F14A116015E0EF4A516012E0EE4A72
:1005E00091600FE0EC4AD1600CE0EB4A116109E048
:1005F000E94A516106E0E84A916103E0E64AD161C7
:1006000000E000BF00BF70470146002009E0012262
:1006100082400A401AB10022DF4B43F82020421CDE
:10062000D0B20828F3DBDB4A12780A43D94B1A70A0
:1006300070470146002009E0012282400A401AB1B9
:100640000022D54B43F82020421CD0B20828F3DB0F
:10065000D04A12788A43CF4B1A707047002014E0BA
:10066000CD4951F8201071B1CB4951F82010491EE5
:10067000C94A42F8201031B901218140C54A127897
:100680001143C44A1170411CC8B20828E8DB704706
:10069000014600200860704701460020086070474E
:1006A000014600200860704710B548F20804031B9B
:1006B000A0423DD00ADC99283BD06FF400430344AC
:1006C00073B1012B10D0032B37D124E0082B23D09A
:1006D000382B2BD0782B18D0B3F5FC7F2DD126E00A
:1006E0000123AE4C236029E0AD4B1B78052B0BD1C9
:1006F0000023AA4C2360AB4C2360AB4C2360012346
:10070000A74C2370A94C237018E00123A84C236048
:10071000A84C237012E011E00B7D1BB90123A14C02
:10072000236002E000239F4C236007E006E005E021
:1007300004E00123A04C236000E000BF00BF10BD17
:100740007FB504460D462DB1002003900290019024
:1007500000900AE0039424F07F4000F18070029042
:100760006FF07F400190002000906B4602AA01A923
:1007700003A803F05BF97FBD1FB500208D49087009
:100780008B49086085490860864908608A49086085
:100790008549086002F070F988488949894A8A4B7E
:1007A000CDE90032CDE90210AFF21313AFF21F1200
:1007B000AFF21311AFF20F1004F0ADFD002004F002
:1007C000D2FD48F2442005F095F801210020FFF702
:1007D000B7FF00207249087004B010BD1CB5044674
:1007E00004200190032C07D111220221084604F0B5
:1007F000B1F97649086006E006220121022004F0E2
:10080000A9F972490860642000F021FD042001ABC1
:1008100001224FF6FF7100906C48006804F082FBE3
:10082000642000F014FD042001AB00224FF6FF719C
:1008300000906648006804F075FB1CBD7FB5044657
:100840000D4616460220ADF8000028128DF8020071
:10085000E9B28DF80310E1B28DF80410210A8DF889
:100860000510210C8DF80610210E8DF80710022EB0
:100870001ED0012E1CD112E05448006804F09BF9F0
:100880004FF42F7000F0E3FC06220121022004F057
:1008900061F94E4908604FF42F7000F0D8FC102227
:1008A00069464A48006804F081FA401C0028E3D0F9
:1008B000002004B070BD7FB504460220ADF80000F2
:1008C00020128DF80200E1B28DF803100021019191
:1008D000102269463D48006804F0CBF90546E8B2AD
:1008E00004B070BD7FB504460D4616460220ADF833
:1008F000000028128DF80200E9B28DF80310E1B271
:100900008DF80410210A8DF80510210C8DF80610C1
:10091000210E8DF80710012E17D12C48006804F025
:100920004AF93046FFF75AFF06E02848006804F00D
:1009300042F93046FFF752FF10226946234800680B
:1009400004F034FA401C0028EFD07FBD2DE9FF47AA
:10095000064688466F46357800BF09F057FD0068A7
:10096000405D202803D0002004B0BDE8F0870024BB
:100970004FF00A09302D2DD1701C06460578782DD0
:1009800001D0582D24D14FF01009701C064605786F
:1009900020E0000065000020401200203000002010
:1009A00048000020340000203C00002049000020C6
:1009B0002C0000204000002038000020D92C000826
:1009C000AD2C0008532C0008472C000844000020E0
:1009D0004FF0080900BF09F019FD0068405D2028AC
:1009E00007D1A5F1300004FB0904701C0646057808
:1009F000F1E7B9F1100F1CD109F008FD006810F8FB
:100A000005A08AEA8A0000F0800090B109F0FEFC9F
:100A10000068405D00F0080008B1612100E041215C
:100A200005F10A00401A40EA0414701C06460578D5
:100A3000D1E700BF00BF2E2D09D103A8874201D303
:100A4000002091E710C7701C0646057885E700BFB7
:100A500000BF45B109F0DAFC0068405D00F001001C
:100A600008B9002080E76846381A012101EBA00090
:100A700005282AD2DFE800F00305060F1B0000203E
:100A800072E723E0B4F1807F01D300206CE7009887
:100A900044EA00641AE0B4F5803F01D3002063E724
:100AA00000980006019940EA014004430EE0FF2C43
:100AB00001D9002058E700980006019940EA01405A
:100AC000029940EA0120044300E000BF00BFB8F1F2
:100AD000000F0CD0200E04F47F0140EA112004F432
:100AE0007F4140EA012040EA0460C8F8000001208C
:100AF0003AE72DE9F84305460C4617461E4604F131
:100B0000040869463846FFF721FF012802DA012070
:100B1000BDE8F88306220121022004F01BF82860BA
:100B20002868401C18B904F062FC0120F0E702209C
:100B30002080300AA070E6704046009901F06FFEF8
:100B4000804604222146286804F030F9002801DAA2
:100B50000120DDE70020DBE77FB506460C461546A1
:100B60002B46224669463046FFF7C3FF7FBD10B5CE
:100B700004F03DFC4FF47A7000F069FB002004F0B3
:100B8000F2FB48F2442004F0B5FE10BD10B5F74862
:100B900003F031F8002010BD70B50020F449086062
:100BA000F4490870F4490860F4490860F4490860A1
:100BB000F448007803286CD100221146104604F056
:100BC000B7FCFF2004F012FE04E0012000F03FFB20
:100BD00002F022FEE84800680128F6D0FFF7C7FFC0
:100BE000E94804F0F9FE002004F0C9FE02E0052007
:100BF00000F02DFBDE4800680028F8D010210C2002
:100C000003F0F1F8E14803F071FF04F009FF00BFC1
:100C100001221146002004F08BFC0028F8D132207C
:100C200000F015FBFFF7A3FF0120D649087004E090
:100C3000C82000F00CFB02F0EFFDD048006800284F
:100C4000F6D0CD4800680028F2D0CA4800780128C4
:100C50001AD1CA480068012816D1C748006801287F
:100C600012D100240AE0CA4809F0F8FB85B22A46EE
:100C7000C749012004F0E6FA601CC4B2052CF2DB7F
:100C80000020BC49087000BF0420BE490870FFF76F
:100C90007DFF70BD10B5322406E0C82000F0D7FA01
:100CA00002F0BAFD601EC4B2B448006810B1B24888
:100CB000006808B9002CF0DC64B9B048006810B1D5
:100CC000AD48006830B9FFF752FF0120AD49087008
:100CD000002010BD4FF4FA7000F0B9FAFFF756FF8C
:100CE0000720A84908700120F3E710B50120FFF79D
:100CF00075FD4FF47A7000F0AAFA1CB90220A149E0
:100D0000087008E0FFF733FF4FF47A7000F09FFAA5
:100D100001209C490870002010BD10B50220FFF78B
:100D20005DFD4FF47A7000F092FA02209549087048
:100D3000002010BD10B50320FFF750FD4FF47A706E
:100D400000F085FA93494978924A127801EB022122
:100D500088B2FFF7B0FD04461CB90220894908702B
:100D600008E0FFF704FF4FF47A7000F070FA0120FA
:100D700084490870204610BD2DE9FC4105460C460B
:100D800000221146104604F0D3FB04F0BCFB6420A3
:100D900000F05DFA204609F061FB0646284609F09E
:100DA0005DFB074600233A4629460320CDE900466D
:100DB00004F035FB02E0052000F049FA6E480068B7
:100DC0000028F8D04FF4FA7000F041FA0020BDE896
:100DD000FC8110B50446012C02D1FFF786FF08E024
:100DE000022C02D1FFF799FF03E0032C01D1FFF79A
:100DF000A1FF10BD2DE9FC4105460C46002211461D
:100E0000104604F095FBFF2004F0F0FC322000F0C7
:100E10001EFA204609F022FB0646284609F01EFB72
:100E2000074600233A4629460320CDE9004604F050
:100E3000F6FAA8B900BF01221146002004F078FBA1
:100E40000028F8D1322000F002FA01204D49087044
:100E5000FFF720FF10B90020BDE8FC810120FBE76F
:100E60000020F9E710B5ADF5816D4FF4FA600690FA
:100E7000079006A8CD2100226FF07703CDE901325B
:100E8000CDE90310580D052364221146009001207E
:100E900004F0DEFC044641F2883000F0D8F924B9B1
:100EA00008A9002004F0BBFC044641F2883000F0A1
:100EB000CEF90DF5816D10BD30B587B005460C46F5
:100EC0000220ADF80C00334800788DF80E00314850
:100ED00041788DF80F10304801788DF81010417866
:100EE0008DF8111081788DF81210C1788DF81310DB
:100EF00024480078052834D128480088C0F580604F
:100F0000A0420CDB2649254A128888182246294629
:100F100009F080FA214800882044204908801020E8
:100F200003A90023CDE900101C4802881C491D4874
:100F3000006804F073F918B100201B4908700CE038
:100F4000194801780078401C174A10700A2904DB00
:100F50000020114608700B49087000200F490880D6
:100F600002E000201049087007B030BD4C0D002091
:100F70002C00002040000020300000203400002021
:100F800038000020480000204A0000201EA500086C
:100F90004D0000205F00002061000020560000206E
:100FA000A60D0020440000206700002010B588B086
:100FB00000206349087063480078052829D100BFE4
:100FC00003A804A900232022CDE900105E495F4850
:100FD000006804F077F8C4B2002C13DD584800789C
:100FE000C0F58060A0420EDD5949554A1278881834
:100FF0002246554909F00EFA5148007820445049DC
:10100000087000E00024202CDAD034214E4809F08A
:101010001AFA08B010BD10B54A480078052863D008
:101020004848007805285DD2DFE800F00322424CF2
:101030005500FF20FFF7FDFA012042490870002209
:101040001146104604F074FAFF2004F0CFFB322062
:1010500000F0FDF800BF01221146104604F068FAC6
:101060000028F8D1322000F0F2F8FFF780FD3AE0D6
:10107000FF20FFF7DEFA04E0C82000F0E8F802F0F5
:10108000CBFB344800680028F6D0334800680028BD
:10109000F2D004F063FC314908600846006830B9BA
:1010A0002F493048FFF768FE0220264908701AE0F1
:1010B0000720FFF7A9FA05202249087002202A49D3
:1010C000087010E0FF20FFF7B4FAFFF765FDFF207E
:1010D000FFF7AFFA07E00720FFF796FA0520194956
:1010E000087000E000BF17E020480078012810D108
:1010F00000201E49087018490860164908601C49FC
:10110000086001F0B9FC01200E4908701949087007
:1011100001E0FFF74BFF10BD00BFFCE770B50446D0
:101120000D4615494978144A127801EB022188B21C
:10113000FFF7C1FB29462046FFF7BEFE70BD000049
:10114000C2000020480000200A12002044000020B5
:1011500050130020340000203000002068000020E0
:10116000D8110020A61100201B00002066000020DE
:101170003C000020490000205F00002070477047BD
:1011800070477047704770477047704710B50948FF
:1011900000780949087014220649491C074809F0DB
:1011A00039F910BD00B5024601211046FFF7E7FFEF
:1011B00000BD7047101300201D00002060120020A9
:1011C000704700BFFEE700BFFEE700BFFEE700BFBD
:1011D000FEE770477047000030B5DE4800686422C3
:1011E000B0FBF2F1B1F1807F01D301201DE021F0CD
:1011F0007F40401E4FF0E022506150170F22002820
:1012000007DA13071D0ED44B00F00F04241F1D55E1
:1012100003E013071C0ED14B1C5400BF00204FF0FD
:10122000E022906107201061002008B100BFFEE7B6
:1012300030BD00B585B0684607F007F8019805B0E5
:1012400000BD10B5FFF7F5FF0446204610BD0A218A
:1012500090FBF1F1C24A116000BFC1490968002941
:10126000FBD1704770B504460D4645B9BD4A32F80A
:101270001410BD4A52F8240006F045FE07E0B94AB2
:1012800032F81410B84A52F8240006F03EFE70BD41
:1012900008B50121082007F045F80121082007F0D2
:1012A00041F80121082007F03DF80121102007F046
:1012B00039F810208DF803004001ADF8000003203C
:1012C0008DF802006946A94806F070FD10208DF8DF
:1012D00003000001ADF8000003208DF8020069460C
:1012E000A24806F063FD10208DF803002020ADF821
:1012F000000003208DF8020069469C4806F056FD68
:1013000010208DF803004002ADF8000003208DF896
:1013100002006946964806F049FD00210846FFF79D
:10132000A1FF00210120FFF79DFF00210220FFF710
:1013300099FF00210320FFF795FF08BD1FB501218C
:10134000084606F0FCFF4FF0804007F0D5F9C820B2
:10135000ADF8080048F69F40ADF804000020ADF855
:101360000A00ADF8060001A94FF0804007F098FA96
:101370000121880708F0B6F801221146900707F00E
:1013800006FE0121880707F0E7FD4FF4E06006F054
:1013900087FA1C208DF8000000208DF801008DF8E0
:1013A000020001208DF80300684606F07EFA002155
:1013B0004FF0006006F0ABFA1FBD10B5FFF70CFF51
:1013C000FFF766FFFFF7BAFF012006F031FF00BF0D
:1013D000612006F07CFE0028FAD010BD10B504464E
:1013E000604A32F81410604A52F8240006F071FD89
:1013F00040B15C4A32F814105B4A52F8240006F0FF
:1014000084FD07E0574A32F81410574A52F8240076
:1014100006F079FD10BD10B50446524A32F814109A
:10142000514A52F8240006F054FD58B14D4A32F8A2
:1014300014104D4A52F8240006F067FD00204D4973
:1014400008800AE0474A32F81410474A52F824004C
:1014500006F059FD01204749088010BD10B5012153
:10146000880708F042F8012857D10121800708F0C9
:101470004DF84148007805281AD140480078401CB2
:10148000C0B23E490870052803DB0020087002F056
:10149000C3F93B480078401CC0B2394908700A289B
:1014A00001DB0020087001210846FFF7DBFE34E075
:1014B00031480078012812D1324801780078401C68
:1014C000304A1070052928DB0020114608700021E1
:1014D0000120FFF7C7FE0220FFF780FF1DE026482E
:1014E0000078072812D1274801780078401C254A47
:1014F0001070022911DB0020114608700121022022
:10150000FFF7B0FE0120FFF769FF06E01A480078F8
:10151000032802D10020FFF761FF10BD10B506F0CF
:101520006DF9044618480078401C17490870FFF709
:1015300095F80B48006820B109480068401E08492A
:101540000860204606F05EF904F0AAFF04F0AAFE47
:1015500010BD00000000002018ED00E000E400E0F5
:10156000D40000202EA50008C4000020000C01407B
:1015700000100140DC00002048000020DE000020B8
:10158000E0000020DF0000201501002010B54FF41E
:101590000041FE4806F0B9FC10BD10B54FF4004103
:1015A000FA4806F0B0FC10BD08B50121F84806F075
:1015B000CEFC0121F74806F0CAFC01210C2006F000
:1015C000B1FE0820ADF8000003208DF802001020C5
:1015D0008DF803006946F04806F0E8FB1020ADF8EE
:1015E00000006946EC4806F0E1FB4FF40060ADF8FE
:1015F00000006946E54806F0D9FB4FF48050ADF88D
:10160000000004208DF803006946E04806F0CEFB98
:101610004FF40040ADF8000010208DF803000320C7
:101620008DF802006946D94806F0C0FBFFF7B5FF08
:1016300008BD70B50024002533E06006040E0821C3
:10164000D54806F060FC00BF00BF00BF00BF00BF70
:1016500000BF00BF00BF00BF00BF00BF00BF00BF92
:1016600000BF00BF00BF0821CB4806F04EFC00BF02
:1016700000BF00BF00BF00BF00BF00BF00BF00BF72
:1016800000BF00BF00BF00BF00BF00BF00BFBF481A
:101690000830006800F4805008B144F00104681C70
:1016A000C5B2082DC9DB204670BD70B504460025C3
:1016B00037E004F0800020B11021B74806F023FC89
:1016C00003E01021B44806F020FC0821B24806F0DF
:1016D0001CFC6006040E00BF00BF00BF00BF00BFBF
:1016E00000BF00BF00BF00BF00BF00BF00BF00BF02
:1016F00000BF00BF00BF0821A74806F004FC00BFE0
:1017000000BF00BF00BF00BF00BF00BF00BF00BFE1
:1017100000BF00BF00BF00BF00BF00BF00BF681C0C
:10172000C5B2082DC5DB70BD10B500244FF40061B3
:10173000964806F0EAFB0520FFF7B7FF00BFFFF76A
:1017400078FF044604F001000028F8D14FF400614E
:101750008E4806F0D8FB10BD10B54FF400618B48E1
:1017600006F0D3FB0620FFF7A0FF4FF40061874887
:1017700006F0C9FB10BD10B50446FFF7EDFFFFF7FB
:10178000D3FF4FF40061814806F0BFFB2020FFF734
:101790008CFFC4F30740FFF788FFC4F30720FFF76F
:1017A00084FFE0B2FFF781FF4FF40061774806F055
:1017B000AAFBFFF7B9FF10BD10B5FFF7CDFF4FF43F
:1017C0000061724806F0A1FBC720FFF76EFF4FF4DF
:1017D00000616E4806F097FBFFF7A6FF10BD70B5DD
:1017E00005460C461646FFF7B7FF4FF40061674801
:1017F00006F08BFB0220FFF758FFC4F30740FFF70A
:1018000054FFC4F30720FFF750FFE0B2FFF74DFF8E
:10181000B6F5807F01DD4FF4807603E02878FFF78E
:1018200044FF6D1C3000A6F101018EB2F6D14FF4D9
:101830000061564806F067FBFFF776FF70BD2DE9A3
:10184000F05F07460E4614464FF00008C146C246F8
:101850000025AB4606F0FF0ACAF10000C5B22046DB
:10186000E11704EB1161C1F30728E11704EB1161E3
:101870000912A4EB012101F0FF09BAF1000F20D1F8
:10188000B8F1000F05D1224631463846FFF7A7FFD1
:1018900064E009E04FF4807231463846FFF79FFF5D
:1018A00006F5807607F580775FEA0800A8F1010168
:1018B00001F0FF08EED14A4631463846FFF78FFF68
:1018C0004CE0B8F1000F18D1A94510DDA9EB0500D7
:1018D00000F0FF0B2A4631463846FFF780FF2E44C2
:1018E0002F445A4631463846FFF779FF36E0224604
:1018F00031463846FFF773FF30E0601B84B2204664
:10190000E11704EB1161C1F30728E11704EB116142
:101910000912A4EB012101F0FF092A46314638469D
:10192000FFF75DFF2E442F4409E04FF480723146EB
:101930003846FFF754FF06F5807607F580775FEAB3
:101940000800A8F1010101F0FF08EED1B9F1000F84
:1019500004D04A4631463846FFF741FFBDE8F09FC4
:1019600070B505460C4616464FF40061074806F070
:10197000CCFA0320FFF799FEC4F30740FFF795FE6A
:10198000C4F30720FFF791FEE0B207E00008014032
:101990000001300000023000000C0140FFF785FE1E
:1019A00003E0FFF746FE28706D1C3000A6F1010130
:1019B0008EB2F6D14FF400613C4806F0A4FA70BD37
:1019C0002DE9F04100240025002600274FF4006196
:1019D000364806F09AFA9F20FFF767FEFFF729FEC8
:1019E0000546FFF726FE0646FFF723FE07464FF49F
:1019F00000612E4806F087FA280440EA062040EAF3
:101A000007042046BDE8F08110B500244FF40061C2
:101A1000264806F07AFAAB20FFF747FEFF20FFF7D3
:101A200044FEFF20FFF741FEFF20FFF73EFEFFF7D9
:101A300000FE04464FF400611C4806F064FA20469C
:101A400010BD10B504464FF40061184806F05DFA69
:101A50000320FFF72AFEC4F30740FFF726FEC4F376
:101A60000720FFF722FEE0B2FFF71FFE10BD10B502
:101A70004FF400610D4806F048FAB920FFF715FE53
:101A80004FF40061094806F03EFA10BD10B54FF45E
:101A90000061064806F039FAAB20FFF706FE4FF466
:101AA0000061024806F02FFA10BD00000008014056
:101AB00001B5009800BF0100A0F10100FBD108BDF5
:101AC00010B5044600BF0221FE4806F0DEFD0028E6
:101AD000F9D02146FB4806F085FD00BF0121F948F9
:101AE00006F0D3FD0028F9D0F64806F07DFDC0B21F
:101AF00010BD10B5FF20FFF7E3FF10BD70B5054620
:101B00000C464FF48051F04806F0FFF900BF4FF447
:101B10008041ED4806F0DDF90028F8D12846FFF7AE
:101B2000CFFF2046FFF7CCFF4FF48051E64806F088
:101B3000EAF970BD2DE9F04105460E46174600242E
:101B40004FF48051E04806F0E0F900BF4FF48041C7
:101B5000DD4806F0BEF90028F8D145F04000FFF757
:101B6000AFFF002404E0305DFFF7AAFF601CC4B2A1
:101B7000BC42F8DB4FF48051D34806F0C4F9BDE80D
:101B8000F08170B5044600254FF48051CE4806F030
:101B9000BCF900BF4FF48041CB4806F09AF9002809
:101BA000F8D144F08000FFF78BFF0020FFF788FF9B
:101BB00005464FF48051C44806F0A5F9284670BD8B
:101BC0002DE9F04105460E46174600244FF480519A
:101BD000BD4806F09AF900BF4FF48041BA4806F0BC
:101BE00078F90028F8D145F0C000FFF769FF00241C
:101BF00005E00020FFF764FF3055601CC4B2BC4212
:101C0000F7DB4FF48051B04806F07DF9BDE8F08174
:101C100070B504464FF48051AB4806F076F900BF2A
:101C20004FF48041A84806F054F90028F8D144F058
:101C3000C000FFF745FF0020FFF742FF05464FF4C5
:101C40008051A14806F05FF9284670BD10B50446E2
:101C50004FF480519C4806F058F900BF4FF4804182
:101C6000994806F036F90028F8D12046FFF728FFFA
:101C70004FF48051944806F046F910BD10B54FF46A
:101C80008051914806F03FF94FF400518E4806F01C
:101C90003CF94FF400418C4806F037F9C820FFF7B3
:101CA00007FF4FF48051884806F02DF9C820FFF750
:101CB000FFFE4FF48051844806F027F9C820FFF753
:101CC000F7FE4FF48051804806F01DF94FF47A700A
:101CD000FFF7EEFE4FF480517B4806F016F900BF87
:101CE0004FF48041784806F0F4F80028F8D130200D
:101CF000FFF7E6FE00BF4FF48041734806F0E9F8B5
:101D00000028F8D14FF480516F4806F0FCF810BD60
:101D100010B56E4801780B20FFF7F0FE6B48417854
:101D20000C20FFF7EBFE694881780D20FFF7E6FEF7
:101D30006648C1780E20FFF7E1FE644801790F2064
:101D4000FFF7DCFE614841791020FFF7D7FE5F48BE
:101D500081791120FFF7D2FE5C48C1791220FFF78C
:101D6000CDFE5A48017A1320FFF7C8FE5748417A42
:101D70001420FFF7C3FE5548817A0A20FFF7BEFE04
:101D80005248C17A1520FFF7B9FE5048017B212047
:101D9000FFF7B4FE4D48417B2220FFF7AFFE4B48D2
:101DA000817B1720FFF7AAFE4848C17B1820FFF768
:101DB000A5FE4648017C1920FFF7A0FE4348417C60
:101DC0001A20FFF79BFE4148817C1B20FFF796FEFF
:101DD0003E48C17C1C20FFF791FE3C48017D1D2040
:101DE000FFF78CFE3948417D2320FFF787FE3748F7
:101DF000817D2420FFF782FE3448C17D2520FFF736
:101E00007DFE3248017E2620FFF778FE2F48417E76
:101E10002920FFF773FE2D48817E2C20FFF76EFEF0
:101E20002A48C17E2D20FFF769FE2848017F2E2019
:101E3000FFF764FE2548417F0020FFF75FFE23483F
:101E4000817F0220FFF75AFE2048C17F0720FFF75D
:101E500055FE1E4890F820100820FFF74FFE1B4843
:101E600090F821100920FFF749FE184890F8221039
:101E70000620FFF743FE154890F823100420FFF7D3
:101E80003DFE124890F824100520FFF737FE10BDE4
:101E900070B504460D4600263620FFF7D7FE2E21EA
:101EA0000020FFF72BFE06210220FFF727FE47F256
:101EB0003050FFF7FDFD3B20FFF7C8FE29463F20CD
:101EC00006E0000000380040000C014036A5000884
:101ED000FFF714FE2A4621463F20FFF72BFE47F26C
:101EE0003050FFF7E5FD3520FFF7B0FE09E042F284
:101EF0001070864200DD0BE00A20FFF7D9FD701C50
:101F000086B24FF40061B34805F0E3FF0028EED03D
:101F100000BF00BF4FF40061AE4805F0DAFF0028B3
:101F2000F8D147F23050FFF7C3FD3620FFF78EFEA1
:101F300006210020FFF7E2FD2E210220FFF7DEFD43
:101F400047F23050FFF7B4FD3B20FFF77FFE3A2009
:101F5000FFF77CFE3420FFF779FE70BD002004E01F
:101F600000219D4A1154411CC8B24028F8DB70473B
:101F700038B504463B20FFF74BFE00F07F0068B108
:101F80003F20FFF7FEFD05462A4621463F20FFF78A
:101F900017FE022269463F20FFF712FE3420FFF7AA
:101FA00055FE47F23050FFF783FD012038BD1FB5C5
:101FB0000121042006F0B6F94FF48070ADF804005A
:101FC00004208DF8070001A9844805F0EFFE0121E7
:101FD000084606F0A7F90821002005F0FDFF4FF4A0
:101FE0008070029000208DF80C000C208DF80D0000
:101FF00001208DF80E0002A805F0F8FD17208DF8DD
:1020000000000F208DF801008DF8020001208DF8EE
:102010000300684605F049FC1FBD00B587B00121EB
:10202000880306F08CF90121092006F07BF94FF4B2
:102030006040ADF8180018208DF81B0001208DF8C5
:102040001A0006A9634805F0B1FEFFF7B0FF0121B1
:10205000082006F067F94FF40060ADF8180048203A
:102060008DF81B0001208DF81A0006A9594805F0CB
:102070009DFE4FF48050ADF8180001208DF81A0035
:1020800010208DF81B0006A9524805F08FFE4FF472
:102090008051504805F037FF0021514806F071FA91
:1020A0000020ADF804004FF48270ADF80600002067
:1020B000ADF80800ADF80A00ADF80C004FF4007060
:1020C000ADF80E001020ADF810000020ADF81200A1
:1020D0000720ADF8140001A9414806F0ADF901212F
:1020E0003F4806F04EFA07B000BD10B5FFF795FF68
:1020F000FFF7C4FDFFF70CFE01223A493E20FFF72F
:1021000019FD07210320FFF7F9FC4FF47A70FFF760
:10211000CFFC3620FFF79AFD3A20FFF797FD3B20D2
:10212000FFF794FD3420FFF791FD10BD10B5044674
:10213000E1B20A20FFF7E2FC0A20FFF722FD2A495C
:1021400008704FF47A70FFF7B3FC3620FFF77EFD7E
:102150003A20FFF77BFD3B20FFF778FD3420FFF7A7
:1021600075FD4FF47A70FFF7A3FC10BD10B504465F
:10217000D3210420FFF7C2FC04EBC400C1B2052048
:10218000FFF7BCFC0520FFF7FCFC184908704FF472
:102190007A70FFF78DFC3620FFF758FD3A20FFF7E5
:1021A00055FD3B20FFF752FD3420FFF74FFD4FF464
:1021B0007A70FFF77DFC10BD10B54FF4807005F00C
:1021C0007BFD28B101200A490870000205F085FD59
:1021D00010BD0000000C0140101300200008014059
:1021E00000380040E1000020E9000020EA00002063
:1021F000C300002000B585B0012144F2050006F0BF
:1022000091F80121084606F080F84FF40070ADF80F
:10221000100003208DF8120018208DF8130004A977
:10222000FA4805F0C3FD4FF48060ADF810000420BB
:102230008DF8130004A9F54805F0B8FD4FF4E1301E
:1022400000900020ADF80400ADF80600ADF80800DD
:10225000ADF80C000C20ADF80A006946EC4807F018
:102260009CF901228021EA4807F054FA012240F249
:102270002551E74807F029FA012240F22441E448B9
:1022800007F023FA0121E24807F013FA0121E1489F
:1022900005F041FC05B000BD08B525208DF8000013
:1022A00002208DF801008DF8020001208DF8030056
:1022B000684605F0FAFA0E208DF8000003208DF82C
:1022C000010002208DF8020001208DF8030068460D
:1022D00005F0EBFA0F208DF8000003208DF80100C7
:1022E00002208DF8020001208DF80300684605F0F9
:1022F000DCFA08BD00B58BB0C64805F03FFBC4480A
:10230000001D0090C44801901020029032200390DC
:1023100000200490802005900020069007900890EF
:102320004FF44050099000200A906946B94805F0E2
:10233000C7FBB848143005F021FBB548001D0090DC
:10234000B648019000200290322003906946B148BF
:10235000143005F0B5FB01220221AE48143005F01F
:10236000E6FB0BB000BD10B5002440F22551A84893
:1023700007F090FA58B1A64807F00CFAC1B2A84885
:102380000088401C80B2A64A1080A44A115440F232
:1023900024419F4807F07EFA98B140F224419C48BE
:1023A00007F06FFA9A48001D04889D4800789B4901
:1023B000087000209A49088098499A48006804F0FB
:1023C000FCFB10BD10B54FF4003005F0D3FB10BD81
:1023D00010B5044694F900108F4808F034F894F9C9
:1023E0000020611C8C4808F015F810BD10B504469B
:1023F0002046FFF7EDFF0021864805F08CFB94F99D
:10240000000081B2834805F09BFB0121814805F063
:1024100082FB00BF4FF4005005F098FB0028F9D074
:1024200010BD10B5FFF738FFFFF7E4FEFFF762FFBE
:1024300010BD70B506460025B01E08287ED2DFE824
:1024400000F02868AAFF7D7D050400BF06207649BC
:10245000087024204870754801780078401C734A41
:10246000107048B27049887070B2C870002008714E
:1024700008468078C97808446B4909790844C5B290
:1024800068B269494871232088710846FFF7AEFF9A
:1024900013E1242064494870644801780078401CA6
:1024A000624A107048B26049887070B2C870604863
:1024B00007F0D4FF40B25C49087108460079801DDE
:1024C00040B208705A495848401D07F0CEFF5648A0
:1024D00080785549C9780844534909790844C5B2F8
:1024E000002406E0601D5049085C2844C5B2601C09
:1024F000C4B24D4890F90400A042F3DC69B2601DFB
:10250000494A11542321A01D11541046FFF76EFFB4
:10251000D3E0242044494870444801780078401CA6
:10252000424A107048B24049887070B2C870414841
:10253000007840B208710846007900E0BCE0801DD8
:1025400040B208703B4802783B493748401D07F0CD
:1025500061FF354880783449C9780844324909799F
:102560000844C5B2002406E0601D2F49085C2844D9
:10257000C5B2601CC4B22C4890F90400A042F3DC40
:1025800069B2601D284A11542321A01D1154104620
:10259000FFF72CFF91E0242023494870234801785D
:1025A0000078401C214A107048B21F49887070B2F0
:1025B000C8700420087108460079801D40B2087078
:1025C00008461E490968C0F8051080781649C97880
:1025D0000844154909790844C5B2002406E0601D85
:1025E0001149085C2844C5B2601CC4B20E4890F979
:1025F0000400A042F3DC69B2601D0B4A1154232190
:10260000A01D11541046FFF7F1FE56E000080140EE
:10261000003801404400024090130020C213002003
:10262000EE00002014000020F4130020F000002031
:10263000A61100205E000020D811002061000020BB
:10264000FFE724206D4948706D4801780078401CF0
:102650006B4A107048B26949887070B2C870022025
:10266000087108460079801D40B208700846654927
:102670000988A0F8051080786049C97808445F4946
:1026800009790844C5B2002406E0601D5B49085C76
:102690002844C5B2601CC4B2584890F90400A04256
:1026A000F3DC69B2601D554A11542321A01D115459
:1026B0001046FFF79BFE00E000BF00BF70BDF0B505
:1026C000B3B0044627780026607824287DD1A0780E
:1026D000E178084421790844C6B2002505E0681D68
:1026E000205C3044C6B2681CC5B22079A842F6DC32
:1026F000681D205CB0427ED1E078072879D2DFE8FF
:1027000000F078082C361E2504000820FFF791FE03
:1027100070E00220FFF78DFE3B48FFF7C9F9032068
:10272000FFF787FE3848FFF7C3F90420FFF781FE63
:102730003548FFF7BDF90520FFF77BFE5AE0334827
:1027400000210160D4F80510016053E02D480021FC
:102750000180B4F8051001804CE028212C4807F0D6
:1027600072FE2279611D2A4807F054FE42E02821BA
:10277000284807F068FE2279611D264807F04AFEC6
:10278000207925490870224901A807F06EFE2248E9
:1027900000788DF82C0027221E490DF12D0007F03E
:1027A00039FE1A480068159016480088ADF85800A0
:1027B0000020FEF7E0FFC822002101A8FFF73FF844
:1027C0000220FFF736FE104801E014E011E0FFF7A9
:1027D0006FF90320FFF72DFE0B48FFF769F904207E
:1027E000FFF727FE0848FFF763F90520FFF721FEF2
:1027F00000E000BF00BF33B0F0BD0000F4130020C4
:10280000F00000205F000020E09304006100002041
:10281000A6110020D81100205E000020704700F8AB
:10282000011B0A0A00F8012B0A0C00F8012B0A0E02
:1028300000F8012B704700F8011B0A1200F8012B69
:1028400070470246505C53185B7800EB032080B25F
:10285000704702465018C078000653189B7800EB6A
:10286000034053185B7800EB0320535C1844704717
:10287000002106E0002200E0521CB2F57A7FFBD373
:10288000491C8142F6D3704710B5022005F025FAA5
:1028900010BD10B5FA48006910B10020F849086170
:1028A000F849486A804710BD10B504460020F44935
:1028B00088600846046000208880C860F24808618B
:1028C0000020C880DE20F04981F88200EF4981F8BD
:1028D0008200EC49086A804710BD70B58CB0044690
:1028E0000E461546EA480190029600200590802089
:1028F000069000200790089009904FF440500A90ED
:1029000000200B90012C06D10390049501A9E14809
:1029100005F0D6F808E03CB910200390049501A911
:10292000DC48143005F0CCF80CB070BD08B50121BE
:10293000084605F0EAFCD74805F020F8D5481430E1
:1029400005F01CF80D208DF8000000208DF8010026
:102950008DF8020001208DF80300684604F0A5FF01
:1029600001220221CB48143005F0E1F801220221B6
:10297000C84805F0DCF80022C3490120FFF7ADFF8D
:102980000022C2491046FFF7A8FF01221146C048A5
:102990000C3805F01EFE01220221BD480C3805F05E
:1029A00018FE0121BB4805F0B6F80121B9481430E2
:1029B00005F0B1F808BD70B504460D46B54804F001
:1029C000DDFF01220221B34805F0B1F82A46214675
:1029D0000120FFF782FF0121AE4805F09CF870BD91
:1029E00070B504460D46AB48143004F0C7FF012211
:1029F0000221A848143005F09AF82A462146002002
:102A0000FFF76BFF0121A348143005F084F870BD77
:102A100000B587B00121022005F091FC40F694003A
:102A2000ADF814000020ADF81000ADF81600ADF8B8
:102A3000120004A9984805F033FF6020ADF80000AB
:102A40000120ADF8020040F24A40ADF80600002037
:102A5000ADF808006946904805F0EEFF08218E4861
:102A600006F0C0FB01218C4806F076FB00218A4865
:102A700006F072FA07B000BD00B589B0012104204C
:102A800005F050FC0121042005F04CFC0121080355
:102A900005F048FC48208DF823000220ADF8200006
:102AA00003208DF8220008A97C4805F07FF9012158
:102AB000002005F091FA0220069000208DF81C00FD
:102AC0000C208DF81D0001208DF81E0006A805F0D1
:102AD0008DF807208DF814000F208DF815008DF863
:102AE000160001208DF817000720012181406C4A53
:102AF000430942F8231000BF05A804F0D6FE1020B9
:102B00008DF82300ADF8200003208DF8220008A9DD
:102B1000624805F04BF91021604805F0F4F91820DF
:102B20008DF823002020ADF8200003208DF822002E
:102B300008A95A4805F03AF918208DF8230080209A
:102B4000ADF8200003208DF8220008A9534805F0B5
:102B50002DF904208DF823004020ADF8200003203B
:102B60008DF8220008A94D4805F020F90020ADF8A5
:102B700000004FF48270ADF802000020ADF80400B0
:102B8000ADF806000120ADF808004002ADF80A00DB
:102B90001020ADF80C000020ADF80E000720ADF8B5
:102BA000100000213A480C3805F0EBFC6946384823
:102BB0000C3805F041FC012135480C3805F0E1FCEA
:102BC0001420FFF755FE0121082005F0ABFB012181
:102BD000042005F0A7FB10208DF823000220ADF89B
:102BE000200003208DF8220008A92E4805F0DEF809
:102BF00014208DF823000120ADF8200003208DF86B
:102C0000220008A9254805F0D1F80121234805F044
:102C10007CF90221234805F076F90121082005F00E
:102C200081FB1C208DF823000120ADF8200003203B
:102C30008DF8220008A91B4805F0B8F8FFF7E8FE58
:102C4000002009B000BD10B50221144805F041F97B
:102C500010BD1CB5012014490870022005F03DF894
:102C60000220009000208DF804000C208DF8050053
:102C700001208DF80600684604F0B8FF1CBD000076
:102C800028140020F41500203C140020BF1400205C
:102C90000C3001401C0002400004004000080140CC
:102CA00080E200E0000C0140F20000201CB5002092
:102CB000F8490870022005F010F80220009000206A
:102CC0008DF804000C208DF8050000208DF806001A
:102CD000684604F08BFF1CBD10B504465CB10221B0
:102CE000ED4805F012F96420FFF7C2FD0121EB4821
:102CF00005F009F907E00121E84805F006F902218D
:102D0000E54805F000F910BD10B50121E44805F0D3
:102D1000BCFC012800D110BD0020FCE710B5022149
:102D2000DF4805F0B2FC012800D110BD0020FCE70F
:102D300070B504460D4613E000BFFFF7EFFF002813
:102D4000FBD02178D64805F04DFC00BFFFF7DCFF33
:102D50000028FBD0D24805F047FC681E85B2641CF1
:102D6000002DE9D170BD38B504460D461021CB4881
:102D700005F0CBF80020009002E00098401C009085
:102D80000098B0F57A7FF8DB04212046FFF7D0FFEA
:102D90000020009002E00098401C00900098B0F5E0
:102DA0007A7FF8DB281F81B2201DFFF7C1FF0220C8
:102DB000BC4988601021B94805F0A5F8002038BD4D
:102DC00070B504460D46002605F0010008B9701CD8
:102DD000C6B201202070A819000A6070A819A0705E
:102DE0000020E0702071701D284485B2AE4890F834
:102DF0008200DE2801D000BFFEE7AA48806820B923
:102E000000BFA84880680128FBD1A6488068012837
:102E100004D129462046FFF7A6FF24E0A349486ACB
:102E2000804700BF9F4880680228FBD103209D494E
:102E300088600846C46085809C49086A80471021E4
:102E4000964805F062F89949C869804758B9954A8B
:102E50009188D068FFF76CFF0220924988601021AA
:102E60008E4805F050F800BF8E4880680228FBD1DC
:102E7000002070BD2DE9F04105460E4600248C4F20
:102E800000BF12E000BFFFF749FF0028FBD03978F0
:102E9000834805F0A7FB00BFFFF736FF0028FBD0F3
:102EA0007F4805F0A1FB2855641CB442EADBBDE86D
:102EB000F08110B57B4908690A21FFF7DBFF10BDDF
:102EC00070B57848056900246E79022E02D0042E70
:102ED00020D10FE00321681DFFF7B3FC044604F086
:102EE000010000B9641C24B1A1B205F10A00FFF78A
:102EF000C1FF0FE02C7A641E04F0010000B1641CD5
:102F000024B1A1B205F10A00FFF7B4FF082065491A
:102F1000886000BF00BF002070BD00205D490870C0
:102F2000802064490860704701205A490870802059
:102F3000604980390860704710B5FFF7EEFF102137
:102F4000564804F0E0FF5748006990F88200DE28F8
:102F500001D000BFFEE70220524988600A4612698C
:102F6000501D0A461168884710BD10B5FFF7A8FF2D
:102F700008B9FFF7E1FF10BD10B5022004F09CFE78
:102F8000002832D001204C4908704648806818B9A2
:102F900001204449886022E04248806802280ED11E
:102FA00006204049886010213C4804F0AEFFFFF73E
:102FB00080FF08203B498860FFF7D7FF0FE03948C2
:102FC000806803280BD1374A9188D068FFF7B0FE9C
:102FD0000220344988601021304804F094FF00201A
:102FE00035490870022004F078FE10BD10B54FF48A
:102FF000007004F0CAFD012802D1400204F0D9FD9E
:1030000010BD10B5202004F0C0FD012802D1202001
:1030100004F0CFFD10BD10B50221204804F059FF87
:10302000002836D124480078002832D11948007889
:1030300078B30120204908701A48806818B9012027
:103040001849886022E01748806802280ED10620BF
:10305000144988601021114804F057FFFFF729FF39
:10306000082010498860FFF780FF0FE00D48806856
:1030700003280BD10B4A9188D068FFF759FE022034
:10308000084988601021054804F03DFF00200A49E6
:10309000087010BDF2000020000C01400008014043
:1030A0000030014028140020BF140020F415002037
:1030B000F300002080E100E0F1000020F8B50546B3
:1030C0006E1D002000903078012804D002281CD00A
:1030D00003284ED133E0FE48006970B1FC48016915
:1030E00068468847044644B1009883B2F84881682E
:1030F0002246012000F028FCF8BDF5488168002335
:103100001A46012000F020FC33E0F148C06870B19D
:10311000EF48C16868468847044644B1009883B2C6
:10312000EB4881682246022000F00EFCE4E7E84804
:10313000816800231A46022000F006FC19E0E448EA
:10314000406970B1E248416968468847044644B125
:10315000009883B2DE4881682246032000F0F4FB29
:10316000CAE7DB48816800231A46032000F0ECFB25
:1031700000BF00BF00BFBFE7002812DB072810DC3C
:1031800009B101290DD101228240D24B1B68934322
:10319000D04A136001FA00F2CE4B1B681A43CD4BA4
:1031A0001A60704770B5044600212046FFF751FBB6
:1031B000064604212046FFF74CFB054615F1390F62
:1031C00003D101213046FFF7D7FF70BD2DE9F0474D
:1031D00006464FF0000905213046FFF732FB8146D5
:1031E00006F107080024002709E002214046FFF706
:1031F00028FB05462C4408F10408781C87B24F458B
:10320000F3DBB348008E2044B14908860846C06B02
:103210002044C8630020BDE8F0872DE9F04786B060
:103220000746002401213846FFF70BFB064606F44B
:103230008040C8B1B6F5824F16D13846FFF7C6FFB9
:10324000A348D0F83C80D0F83890C84508D190F811
:10325000400028B19E488369002211469920984772
:10326000012006B0BDE8F08706F4004000287DD0BC
:1032700048F24001701A8E4261D00ADC6FF40040BF
:10328000304480B101280FD003280ED00F286ED112
:1032900016E040280AD0B0F5E07F03D0B0F5F86F13
:1032A0007FD173E000BF00BF00BF00BF88488069C6
:1032B00028B187488369002211463046984772E05A
:1032C0006D467C1D002004E0215C05F8011B411CBB
:1032D00008B20428F8DB241D002004E0215C05F876
:1032E000011B411C08B20428F8DB241D002004E067
:1032F000215C05F8011B411C08B20428F8DB241DE1
:10330000002004E0215C05F8011B411C08B20428E0
:10331000F8DB241D002004E0215C05F8011B411CA2
:1033200008B20428F8DB387928706948806928B128
:1033300067488369152269463046984733E07C1D0B
:1033400000212046FFF785FA019004212046FFF76F
:1033500080FA029008212046FFF77BFA03900C21A7
:103360002046FFF776FA0490102101E01EE018E0F5
:103370002046FFF76EFA05905548806928B15448F9
:103380008369142201A9304698470CE07C1D5048FF
:10339000806928B14E48836901222146304698470A
:1033A00001E000205DE700BF01205AE741F2030081
:1033B000864206D041F20F00864202D0401E86426D
:1033C00012D17D1D04212846FFF743FA82461AF1E7
:1033D000390F07D138793E49C862781DFFF7E2FE00
:1033E00001203EE700203CE739480088B04204D085
:1033F000B6F5805F01D0012033E7002031E72DE9E9
:10340000FF5F04468946924600200290009002E247
:1034100031480078072819D1FFF7FDFD02212F4818
:1034200004F057FD012802D10098401C00902C495F
:10343000009888420AD30020009001202949087092
:1034400023490886002004B0BDE8F09F204840884A
:103450000028DCD0002000901D4846683078042801
:103460007ED101213046FFF7ECF9029006F1050804
:10347000474625463046FFF7D0FE002872D1F07847
:10348000039041F205020298811A90426BD03ADC17
:103490000C2869D008DC68D2DFE800F0677F8984F7
:1034A000838182F28880858640F20722811A9042C9
:1034B00070D01EDC40F20222A0EB020190427CD0D0
:1034C00012DC0D2858D0A0F2012000284DD15AE07E
:1034D000F4150020F80000204800002000080140FA
:1034E000A08601006600002001294DD00229EDD1FF
:1034F0004BE0A1F6FA51A1B301295AD002296FD0AD
:103500000329E3D194E00D2978D009DCC3D2DFE8A8
:1035100001F02C5153B843D0522C902CAA693E0094
:1035200041F20102881A91422AD008DCA1F6FC710E
:103530000529B0D2DFE801F021222A23E300022886
:103540001FD003281ED0A0F5F850FA3800286ED0FE
:103550000B28BBD198F80000CF490886012105E06F
:103560001DE125E012E14FE01FE00EE14046FFF7CC
:1035700068F9C949488608E100BF00BF00BF00BF25
:1035800000BF00BF00BF00BF00BF00BF00BF307959
:103590002070FAE017E010E000BF00BF00BF00BFDE
:1035A00000BF00BF00BF00BF00BF00BF00BF00BF23
:1035B00000BF00BF00BF00BF00BF00214046FFF7B3
:1035C00048F92060E1E030792070641C0021404619
:1035D000FFF73FF9019020460199FFF720F9D4E069
:1035E00040E00BE000214046FFF733F92060241D46
:1035F00004214046FFF72DF92060C6E00021404637
:10360000FFF71FF92060C0E000214046FFF721F9D5
:103610002060241D04214046FFF71BF92060241D73
:10362000102208F10801204606F0F4FEADE065E046
:1036300000BF00214046FFF70CF92060241D042143
:103640004046FFF706F92060241D08214046FFF799
:1036500000F920606068393018B901212068FFF74F
:103660008BFD92E000BF00214046FFF7F2F820609A
:10367000241D04214046FFF7ECF82060241D84E05F
:103680001DE000214046FFF7E4F82060241D0421DE
:103690004046FFF7DEF82060241D08214046FFF772
:1036A000D8F82060241D0C214046FFF7D2F8206096
:1036B0006BE030792071D8F80000206065E00021CF
:1036C0004046FFF7C6F82060241D04214046FFF75E
:1036D000C0F82060241D08214046FFF7B2F82060A2
:1036E000A41C0A214046FFF7ACF82060A41C262247
:1036F00008F10C01204606F08DFE46E045E0002072
:1037000004E0395C05F8011B411C08B20428F8DB11
:103710003F1D002004E0395C05F8011B411C08B284
:103720000428F8DB3F1D002004E0395C05F8011B8C
:10373000411C08B20428F8DB3F1D002004E0395C7E
:1037400005F8011B411C08B20428F8DB3F1D0020CE
:1037500004E0395C05F8011B411C08B20428F8DBC1
:103760003F1D002004E0395C05F8011B411C08B234
:103770000628F8DBBF1D002004E0395C05F8011BBA
:10378000411C08B22028F8DB00BF00BF4248018876
:103790000298814228D100203F49088024E0B046A9
:1037A00096F802B003213046FFF74BF80390B9F1C9
:1037B000000F0CD00421701DFFF74BF8CAF8000071
:1037C0009AF8002006F11501484606F023FE0398FA
:1037D000A0EB0B0208F1050000EB0B01204606F000
:1037E00019FE00202C49C88600202B494880FFF78D
:1037F0009BFB3078042806D10298B0F5805F02D197
:103800003046FFF75BFC2448008820B92248C08E70
:1038100008B9002017E6FBE570B500251E48408872
:1038200078B11D484468207804280AD12046FFF763
:10383000F4FC012805D10020174948800125FFF735
:1038400073FB284670BD014600290BDB072909DC04
:1038500001208840114A1268104008B101207047C9
:103860000020FCE70120FAE770B505460C460A483F
:103870000580002211462046FFF7C1FD70BD70B5DE
:1038800004460D46164601200349C886324629469D
:103890002046FFF7B4FD70BDF4150020F8000020AD
:1038A0002DE9F04107460D4616466C1D012004F82F
:1038B000010B39462046FEF7BEFF044604F8016BB3
:1038C000311D2846FFF77CFA0020BDE8F0812DE984
:1038D000F04780460E4615461F46DDE908A9741DCF
:1038E000022004F8010B04F8018B04F8015BE819CD
:1038F000484481B22046FEF79EFF0446681D3844C6
:10390000484481B23046FFF75BFA0020BDE8F087FB
:103910002DE9F04180460E4615461F46741D0220D3
:1039200004F8010B04F8018B04F8015BE81981B27B
:103930002046FEF780FF0446E819401D81B230465C
:10394000FFF73EFABDE8F0812DE9F04782460E46CA
:1039500090461C4606F10509771D032007F8010B68
:1039600007F801ABA01C81B23846FEF764FF07469A
:10397000B4F57A7F14DC21463846FEF75CFF214619
:103980003846FEF758FF07462246414606F10B002F
:1039900006F040FDA01D81B23046FFF711FA3DE070
:1039A0004FF47A7094FBF0F085B2A01C00EB450058
:1039B00081B23846FEF73FFF4FF47A713846FEF782
:1039C0003AFF07464FF47A72414606F10B0006F0C3
:1039D00021FDA4F57A7084B208F57A7840F2EE31D0
:1039E0003046FFF7EDF917E0B4F57A7F02DC2546A3
:1039F000002403E04FF47A75601B84B2A9F80050EC
:103A00002A46414609F1020006F004FDA844A81C1C
:103A100081B24846FFF7D4F9002CE5D1BDE8F08724
:103A200010B50446204600F08BF910BD2DE9F8438F
:103A300005460E4617469846FF2000908D48D0F860
:103A4000089009F10904002004E0295C04F8011B36
:103A5000411C08B20428F8DB002004E0315C04F8C3
:103A6000011B411C08B20428F8DB002004E0395C8B
:103A700004F8011B411C08B20428F8DB0021204691
:103A8000FEF7CDFE0446002005E018F8001004F80B
:103A9000011B411C08B20428F7DB1422494642F2FC
:103AA0000100FFF7FDFE694642F20100FFF7DCFE70
:103AB0009DF90000BDE8F8832DE9F84304460D4662
:103AC00016461F46FF2000906A48D0F8088008F18B
:103AD0000909206820B120680A2801D20A20206044
:103AE000286820B128680A2801D20A202860306896
:103AF00020B130680A2801D20A203060386820B12D
:103B000038680A2801D20A20386048462168FEF742
:103B100086FE814648462968FEF781FE8146484672
:103B20003168FEF77CFE814648463968FEF777FE2D
:103B300081461422414642F20900FFF7B1FE694670
:103B400042F20900FFF790FE9DF90000BDE8F883FE
:103B50002DE9F8430446884615461E46FF2000908E
:103B60004448876807F1090948462168FEF757FE6F
:103B7000814641464846FEF752FE81462946484660
:103B8000FEF74DFE814631464846FEF748FE814627
:103B90001022394642F20200FFF782FE694642F2E5
:103BA0000200FFF761FE9DF90000BDE8F88338B51B
:103BB00030488468FF2000900022214642F2030032
:103BC000FFF76EFE694642F20300FFF74DFE38BD77
:103BD00038B5FF200090274884680022214642F231
:103BE0000400FFF75DFE694642F20400FFF73CFE69
:103BF0009DF9000038BD70B504461E488568002256
:103C0000294642F20500FFF74BFE214642F205002D
:103C1000FFF72AFE70BD38B5FF2000901548846874
:103C20000022214642F20600FFF73AFE694642F2C0
:103C30000600FFF719FE9DF9000038BDF8B50446EF
:103C4000FF2000900B48856805F1090621463046A3
:103C5000FEF7E5FD06460422294642F20800FFF77A
:103C60001FFE694642F20800FFF7FEFD9DF90000C5
:103C7000F8BD0000F41500202DE9F84304468846FD
:103C800015461E46FF2000906648876807F109091F
:103C900021464846FEF7C3FD814641464846FEF7A9
:103CA000BEFD814629464846FEF7B9FD81460C22F5
:103CB000394640F20120FFF7F3FD694640F201204A
:103CC000FFF7D2FD002211463046FFF7D8FD9DF8E0
:103CD0000000BDE8F8832DE9F84306460C46174678
:103CE00098464FF0FF3000904E48856805F10A096C
:103CF00031464846FEF793FD81460C214846FEF7C3
:103D00008EFD814621464846FEF789FD81463946AB
:103D10004846FEF784FD81462246414605F11A00D9
:103D200006F078FBA3B2102229469020FFF7F0FDA1
:103D3000694640F20220FFF797FD0098BDE8F8833E
:103D400010B504462346002206210846FFF7C3FFAC
:103D5000C0B210BD10B50446234600220621084615
:103D6000FFF78AFFC0B210BD2DE9F04781460C462F
:103D700016460025A84637460CE03B464246202121
:103D80004846FFF7A8FFC5B208F120001FFA80F8E7
:103D9000203C20370DB9202CEFD215B12846BDE8C4
:103DA000F08734B13B46424621464846FFF793FF31
:103DB000C5B22846F3E77CB504461A488568002258
:103DC000294640F20720FFF76BFD694640F20720C5
:103DD000FFF74AFD9DF8030020709DF80400607015
:103DE0009DF800007CBDF8B504460E460D48856878
:103DF00005F1090721463846FEF711FD0746314611
:103E00003846FEF70CFD07460822294640F20320FB
:103E1000FFF746FD694640F20320FFF725FDBDF898
:103E20000000F8BDF415002070B50246002003E044
:103E30000C5C1454441CA0B21028F9DB0120E8E00B
:103E40000424C4EB0014135D0324C4EB0014145DBC
:103E5000FE4D2D5D441E002606EB0414145D6C40DF
:103E6000FB4D2D5C6C4006EB001554550224C4EB51
:103E70000014145DF54D2D5D441E012606EB04145F
:103E8000145D654006EB001415550124C4EB0014C5
:103E9000145DEE4D2D5D441E022606EB0414145DE8
:103EA000654006EB00141555E84CE55C441E0326FE
:103EB00006EB0414145D654006EB00141555441E12
:103EC000042505EB0414145D002505EB0015555D74
:103ED0006C40042505EB00155455441E052505EBE3
:103EE0000414145D012505EB0015555D6C40052596
:103EF00005EB00155455441E062505EB0414145D0E
:103F0000022505EB0015555D6C40062505EB0015F7
:103F10005455441E072505EB0414145D032505EBD9
:103F20000015555D6C40072505EB00155455441EE2
:103F3000082505EB0414145D042505EB0015555DFB
:103F40006C40082505EB00155455441E092505EB6A
:103F50000414145D052505EB0015555D6C4009251D
:103F600005EB00155455441E0A2505EB0414145D99
:103F7000062505EB0015555D6C400A2505EB00157F
:103F80005455441E0B2505EB0414145D072505EB61
:103F90000015555D6C400B2505EB00155455441E6E
:103FA0000C2505EB0414145D082505EB0015555D83
:103FB0006C400C2505EB00155455441E0D2505EBF2
:103FC0000414145D092505EB0015555D6C400D25A5
:103FD00005EB00155455441E0E2505EB0414145D25
:103FE0000A2505EB0015555D6C400E2505EB001507
:103FF0005455441E0F2505EB0414145D0B2505EBE9
:104000000015555D6C400F2505EB00155455441CFB
:10401000A0B20B28FFF614AF70BD0146C81120B145
:104020004806010E81F01B0070474806000EFBE7B2
:10403000F0B502460C46002379E1107804EB031139
:10404000097848408149085C10701079042101EB1F
:104050000311615C48407D49085C1071107A0821A9
:1040600001EB0311615C48407849085C1072107BD9
:104070000C2101EB0311615C48407449085C10732A
:104080005078012101EB0311615C80EA0105507950
:10409000052101EB0311615C48406C49085C5070DC
:1040A000507A092101EB0311615C48406749085CC3
:1040B0005071507B0D2101EB0311615C4840634955
:1040C000085C50720846405D50739078022101EB05
:1040D0000311615C80EA01059079062101EB03116F
:1040E000615C80EA0107907A0A2101EB0311615CAF
:1040F00048405649085C9070907B0E2101EB0311FB
:10410000615C48405149085C90710846405D90727E
:104110000846C05D9073D07B0F2101EB0311615CF9
:1041200080EA0105D07A0B2101EB0311615C484064
:104130004649085CD073D079072101EB0311615C1B
:1041400048404249085CD072D078032101EB03114A
:10415000615C48403D49085CD0710846405DD070C4
:1041600010785178484091784840D17880EA01052C
:1041700017781078517880EA01063046FFF74DFF36
:10418000064610787040684010705078917880EA48
:1041900001063046FFF741FF064650787040684000
:1041A00050709078D17880EA01063046FFF735FFED
:1041B00006469078704068409070D07880EA070694
:1041C0003046FFF72AFF0646D07870406840D0702E
:1041D00010795179484091794840D17980EA0105B8
:1041E00017791079517980EA01063046FFF715FFFB
:1041F000064610797040684010715079917980EAD4
:1042000001063046FFF709FF0646507970406840C6
:1042100050719079D17980EA01063046FFF7FDFEB2
:1042200006469079704068409071D07980EA070620
:104230003046FFF7F2FE0646D07970406840D071F4
:10424000107A517A4840917A484003E05BA5000813
:104250005BA70008D17A80EA0105177A107A517AB3
:1042600080EA01063046FFF7D8FE0646107A704015
:1042700068401072507A917A80EA01063046FFF762
:10428000CCFE0646507A704068405072907AD17ADF
:1042900080EA01063046FFF7C0FE0646907A70407D
:1042A00068409072D07A80EA07063046FFF7B5FE84
:1042B0000646D07A70406840D072107B517B4840EF
:1042C000917B4840D17B80EA0105177B107B517BB5
:1042D00080EA01063046FFF7A0FE0646107B7040DC
:1042E00068401073507B917B80EA01063046FFF7EF
:1042F00094FE0646507B704068405073907BD17BA3
:1043000080EA01063046FFF788FE0646907B704043
:1043100068409073D07B80EA07063046FFF77DFE49
:104320000646D07B70406840D073581CC3B2092B3E
:10433000FFF683AE107804EB031109784840FE497C
:10434000085C10701079042101EB0311615C484096
:10435000F949085C1071107A082101EB0311615CC6
:104360004840F549085C1072107B0C2101EB0311E9
:10437000615C4840F049085C10735078012101EB02
:104380000311615C80EA01055079052101EB0311FD
:10439000615C4840E849085C5070507A092101EBA3
:1043A0000311615C4840E449085C5071507B0D2169
:1043B00001EB0311615C4840DF49085C507208461C
:1043C000405D50739078022101EB0311615C80EA3B
:1043D00001059079062101EB0311615C80EA010778
:1043E000907A0A2101EB0311615C4840D249085CD4
:1043F0009070907B0E2101EB0311615C4840CE4927
:10440000085C90710846405D90720846C05D9073EC
:10441000D07B0F2101EB0311615C80EA0105D07AAA
:104420000B2101EB0311615C4840C349085CD07368
:10443000D079072101EB0311615C4840BE49085C5B
:10444000D072D078032101EB0311615C4840BA4976
:10445000085CD0710846405DD070107814F8A01F39
:104460004840107050786178484050709078A1783A
:1044700048409070D078E1784840D0701079217928
:104480004840107150796179484050719079A17914
:1044900048409071D079E1794840D071107A217A02
:1044A00048401072507A617A48405072907AA17AEE
:1044B00048409072D07AE17A4840D072107B217BDC
:1044C00048401073507B617B48405073907BA17BC8
:1044D00048409073D07BE17BA03C4840D073F0BD56
:1044E0002DE9F04102460C460923107814F8A01F6C
:1044F0004840107050786178484050709078A178AA
:1045000048409070D078E1784840D0701079217997
:104510004840107150796179484050719079A17983
:1045200048409071D079E1794840D071107A217A71
:1045300048401072507A617A48405072907AA17A5D
:1045400048409072D07AE17A4840D072107B217B4B
:1045500048401073507B617B48405073907BA17B37
:1045600048409073D07BE17BA03C4840D0731078EA
:104570007249085C04EB0311097848401070107907
:104580006E49085C042101EB0311615C4840107125
:10459000107A6A49085C082101EB0311615C48400C
:1045A0001072107B6549085C0C2101EB0311615C02
:1045B00048401073507B6149085C012101EB0311F5
:1045C000615C80EA0105507A5C49085C0D2101EBD1
:1045D0000311615C4840507350795849085C0921C7
:1045E00001EB0311615C4840507250785349085CFC
:1045F000052101EB0311615C4840507155709078C2
:104600004E49085C0A2101EB0311615C80EA010557
:1046100090794A49085C0E2101EB0311615C80EA44
:104620000107907A4549085C022101EB0311615CA6
:1046300048409070907B4149085C062101EB0311D2
:10464000615C4840907195729773D0783B49085CE3
:104650000F2101EB0311615C80EA0105D079374934
:10466000085C032101EB0311615C4840D070D07AF3
:104670003249085C072101EB0311615C4840D071AD
:10468000D07B2E49085C0B2101EB0311615C484093
:10469000D072D573082301E2117892F802C081EA42
:1046A0000C00FFF7BAFC8046FFF7B7FC05465178CF
:1046B00092F803C081EA0C00FFF7AFFC8046FFF7D9
:1046C000ACFC074610786840107050787840507005
:1046D000907868409070D0787840D070117992F8D6
:1046E00006C081EA0C00FFF798FC8046FFF795FCB6
:1046F0000546517992F807C081EA0C00FFF78DFC5E
:104700008046FFF78AFC074610796840107150799F
:1047100078405071907968409071D0797840D0712C
:10472000117A92F80AC081EA0C00FFF776FC804605
:10473000FFF773FC054603E05BA500085BA60008D5
:10474000517A92F80BC081EA0C00FFF766FC8046B4
:10475000FFF763FC0746107A68401072507A784081
:104760005072907A68409072D07A7840D072117B03
:1047700092F80EC081EA0C00FFF74FFC8046FFF76D
:104780004CFC0546517B92F80FC081EA0C00FFF704
:1047900044FC8046FFF741FC0746107B68401073DD
:1047A000507B78405073907B68409073D07B78400A
:1047B000D07310785178484091784840D17880EA99
:1047C000010517781078517880EA01063046FFF726
:1047D00024FC06461078704068401070507891783C
:1047E00080EA01063046FFF718FC06465078704014
:1047F000684050709078D17880EA01063046FFF723
:104800000CFC06469078704068409070D07880EA42
:1048100007063046FFF701FC0646D0787040684036
:10482000D07010795179484091794840D17980EA27
:10483000010517791079517980EA01063046FFF7B2
:10484000ECFB064610797040684010715079917900
:1048500080EA01063046FFF7E0FB064650797040DB
:10486000684050719079D17980EA01063046FFF7AF
:10487000D4FB06469079704068409071D07980EA08
:1048800007063046FFF7C9FB0646D07970406840FE
:10489000D071107A517A4840917A4840D17A80EAB2
:1048A0000105177A107A517A80EA01063046FFF73F
:1048B000B4FB0646107A704068401072507A917AC4
:1048C00080EA01063046FFF7A8FB0646507A7040A2
:1048D00068405072907AD17A80EA01063046FFF73C
:1048E0009CFB0646907A704068409072D07A80EACD
:1048F00007063046FFF791FB0646D07A70406840C5
:10490000D072107B517B4840917B4840D17B80EA3C
:104910000105177B107B517B80EA01063046FFF7CB
:104920007CFB0646107B704068401073507B917B87
:1049300080EA01063046FFF770FB0646507B704068
:1049400068405073907BD17B80EA01063046FFF7C8
:1049500064FB0646907B704068409073D07B80EA91
:1049600007063046FFF759FB0646D07B704068408B
:10497000D07310786349085C04EB03110978484050
:10498000107010795F49085C042101EB0311615C30
:1049900048401071107A5B49085C082101EB031153
:1049A000615C48401072107B5649085C0C2101EB99
:1049B0000311615C48401073507B5249085C01212F
:1049C00001EB0311615C80EA0105507A4D49085CF6
:1049D0000D2101EB0311615C484050735079494946
:1049E000085C092101EB0311615C4840507250786A
:1049F0004449085C052101EB0311615C484050719A
:104A0000557090783F49085C0A2101EB0311615C05
:104A100080EA010590793B49085C0E2101EB031106
:104A2000615C80EA0107907A3649085C022101EB5B
:104A30000311615C48409070907B3249085C06210C
:104A400001EB0311615C4840907195729773D078C7
:104A50002C49085C0F2101EB0311615C80EA010520
:104A6000D0792849085C032101EB0311615C4840BF
:104A7000D070D07A2349085C072101EB0311615CF7
:104A80004840D071D07B1F49085C0B2101EB03111A
:104A9000615C4840D072D573581E43B2002BBFF6FC
:104AA000FBADBDE8F08130B504460D4629461648F9
:104AB000FFF7BAF914492046FFF7BAFA30BD30B50E
:104AC00004460D4629461048FFF7AEF90E49204628
:104AD000FFF706FD30BD70B50446234600221021C5
:104AE0000C20FFF7C9F80546284670BD70B504468E
:104AF0002346002210210C20FFF7EDF8054628463A
:104B000070BD00005BA600084215002010B50446E9
:104B100000BFFE48C06A58B105F0EEFCFB49C96A07
:104B200001600020F949C86205F0E6FC006810BD8C
:104B30002046FEF788FE10B14FF0FF30F7E7F3484C
:104B4000008E0028E5D0F148008E401EEF4908860F
:104B50000020ECE72DE9F84304460F4615464FF0D8
:104B6000FF300090E948866806F109082146404672
:104B7000FDF755FE804639464046FDF750FE80461B
:104B800029464046FDF74BFE80460C22314641F255
:104B90000100FEF785FE694641F20100FEF764FE62
:104BA00005F0AAFC0099016000210098FEF7E4FAE4
:104BB0000098BDE8F883F8B504464FF0FF30009048
:104BC000D248856805F1090621463046FDF727FEE3
:104BD00006460422294641F20B00FEF761FE6946B3
:104BE00041F20B00FEF740FE05F086FC00990160E3
:104BF00001212046FEF7C0FA0098F8BD2DE9F043E8
:104C000087B005460E4617464FF0FF34BF48D0F830
:104C1000088008F1090929464846FDF700FE81464B
:104C20000422414641F20500FEF73AFE01A941F295
:104C30000500FEF719FE03983060049870600820A4
:104C4000386005F059FC0299016005F055FC0468D4
:104C5000002C06DB072C04DC00212046FEF78CFA32
:104C600003E001212846FEF787FA204607B0BDE899
:104C7000F0832DE9F84306460F4614464FF0FF3007
:104C80000090A248D0F8088008F1090508243146B0
:104C90002846FDF7C4FD054608212846FDF7BFFD5F
:104CA000054621462846FDF7BAFD0546002004E0EA
:104CB000395C05F8011B411C08B2A042F8DB142244
:104CC000414641F20200FEF7EBFD694641F2020067
:104CD000FEF7CAFD05F010FC009901600098BDE8E0
:104CE000F883F8B504460E464FF0FF300090874831
:104CF000856805F1090721463846FDF790FD07460E
:104D000031463846FDF78BFD07460822294641F219
:104D10000600FEF7C5FD694641F20600FEF7A4FD58
:104D200005F0EAFB009901600098F8BD2DE9FC410F
:104D300007460C46904605F0DFFB4FF0FF3101605F
:104D4000E62C04DD05F0D8FB0068BDE8FC816F4867
:104D5000856805F1090608213046FDF760FD064625
:104D600021463046FDF75BFD0646002004E0395C35
:104D700006F8011B411C08B2A042F8DB04F1080050
:104D8000C2B2294641F21000FEF78AFD694641F29F
:104D90001000FEF769FD05F0AFFB00990160019876
:104DA000C8F8000005F0A8FB0068CEE72DE9F8433D
:104DB00006460F4614464FF0FF3000905348D0F897
:104DC000088008F10905082431462846FDF727FD2B
:104DD000054608212846FDF722FD054621462846BE
:104DE000FDF71DFD0546002004E0395C05F8011BB8
:104DF000411C08B2A042F8DB1422414641F20700F0
:104E0000FEF74EFD694641F20700FEF72DFD05F065
:104E100073FB009901600098BDE8F8832DE9FF5FFE
:104E200082460D4616461F460E9C14B94FF00109E6
:104E300001E04FF000093548D0F8088008F1090B6F
:104E400051465846FDF7EBFC834614215846FDF7C2
:104E5000E6FC834614215846FDF7E1FC8346142105
:104E60005846FDF7DCFC834614215846FDF7D7FC75
:104E7000834649465846FDF7D2FC83460DB1286863
:104E800000E0002001465846FDF7C9FC83460EB1FC
:104E9000306800E0002001465846FDF7C0FC83461C
:104EA0000FB1386800E0002001465846FDF7B7FC16
:104EB000834694B1206830B941F2883160688842F5
:104EC00001DA0846606058462168FDF7A8FC834671
:104ED00058466168FDF7A3FC83462C22414641F207
:104EE0000800FEF7DDFC694641F20800FEF7BCFC55
:104EF000009800280FDB0DB1019828600EB10298D0
:104F000030600FB103983860009801E0F41500207C
:104F100004B0BDE8F09F05F0EFFA009901604FF092
:104F2000FF30F2E72DE9F84F06468A4617469846C5
:104F30000A9CEC48D0F8089009F10905314628464A
:104F4000FDF76DFC054651462846FDF768FC054611
:104F500039462846FDF763FC054608212846FDF73B
:104F60005EFC054621462846FDF759FC0546002013
:104F700005E018F8001005F8011B411C08B2A0421A
:104F8000F7D304F11400C2B2494641F20900FEF71A
:104F900087FC694641F20900FEF766FC009800288C
:104FA00002DB0020BDE8F88F05F0A6FA0099016049
:104FB0000098F7E72DE9FC470446884615461E464B
:104FC000DDF82890C748876807F1090A214650464E
:104FD000FDF725FC824641465046FDF720FC8246FF
:104FE00029465046FDF71BFC82460C22394641F209
:104FF0000A00FEF755FC694641F20A00FEF734FC50
:105000009DF8040040B2002807DB0420C9F8000026
:10501000009830600020BDE8FC8705F06DFA9DF82F
:105020000410016005F068FA0068F4E72DE9FF5FFD
:1050300004460D4616461F46DDE90EABDDF84080FE
:10504000A848D0F8089009F1090003902146039878
:10505000FDF7E5FB039031460398FDF7E0FB039075
:1050600039460398FDF7DBFB03901FFA88F00C220A
:105070004946FEF715FC1FFA88F06946FEF7F4FB77
:105080000198002804DD5A4651462846FEF7F7FBF2
:1050900005F032FA01990160019804B0BDE8F09F73
:1050A000FEB504460D4616461F4641F20400002197
:1050B00000913B463246CDE9011029462046FFF7D4
:1050C000B5FFFEBD2DE9FE4304460D4616461F46BC
:1050D000DDE90A8941F20D003B4632462946CDE919
:1050E000008902902046FFF7A1FFBDE8FE832DE96D
:1050F000FF4F89B081468A461446DDF858B0189EA5
:105100004846FFF703FD059018B105980DB0BDE8BE
:10511000F08F7448806B401C72498863084687682A
:1051200007F10A000790812E0BD0832E11D104F1D4
:1051300008000690082008904FF0180807F1220593
:1051400008E00020179083464FF0100807F11A0579
:1051500000E000BF00BF49460798FDF760FB0790DD
:10516000A8F104010798FDF75AFB0790214607981C
:10517000FDF755FB07900C990798FDF750FB07903A
:10518000832E09D1DDE90610FDF749FB0790DDE923
:105190000701FDF744FB0790002005E01AF8001016
:1051A00005F8011B411C08B2A042F7DB832E0BD18E
:1051B000002005E01BF8001005F8011B411C08B297
:1051C00017998842F6DB00BF179880B2A3B2CDE9E9
:1051D00000B0F0B242463946FEF779FB832E05D186
:1051E00002A941F20F00FEF73FFB04E002A941F2E1
:1051F0000300FEF739FB204688E7FEB504460D465E
:1052000016461F468120002100913B463246CDE9DB
:10521000011029462046FFF76AFFFEBD2DE9FE4337
:1052200004460D4616461F46DDE90A8983203B46A3
:1052300032462946CDE9008902902046FFF757FF04
:10524000BDE8FE832DE9F843074688461446202C26
:1052500003DD4FF0FF30BDE8F8832248856805F193
:10526000090639463046FDF7DAFA06460821304687
:10527000FDF7D5FA064621463046FDF7D0FA064638
:10528000002005E018F8001006F8011B411C08B2C8
:10529000A042F7DB04F10C00C2B2294641F2110032
:1052A000FEF7FEFA694641F21100FEF7DDFA0098BA
:1052B000D1E7F8B504460B48856805F10906214693
:1052C0003046FDF7ACFA06460422294641F21200A8
:1052D000FEF7E6FA694641F21200FEF7C5FA0098B9
:1052E000F8BD0000F415002070B50446F748866844
:1052F00006F109050CB1022000E0002005F8010BC1
:10530000012231469003FEF7CBFA00214FF4804092
:10531000FEF7AAFA70BD2DE9F04106ACF0CCDFF83B
:10532000ACC3CCF80C10CCF81020CCF81430CCF86E
:105330001C40CCF82050CCF82460CCF82870CCF875
:1053400018004FF0010CDFF8848388F840C0BDE8F6
:10535000F08110B504460120DC49488008464460CD
:10536000FEF75AFA10BD70B504460020D74988638D
:10537000C8630880088648868886C886C8624880D0
:105380004860D34888600121D24803F0E5FDAFF2C0
:105390003D00FDF789FACD49C86980470546CB48ED
:1053A000816A0120884735B100BFC849C869804774
:1053B0000028FAD10BE000BFC449C8698047002823
:1053C000FAD000BFC149C86980470028FAD12046F9
:1053D000FFF78AFFBD488168002244F20B00FEF708
:1053E0005FFA002144F20B00FEF73EFA70BD10B5E3
:1053F000B648816A0020884700BFB449C869804721
:105400000028FAD0B148806810B10020AF49886008
:10541000FDF73FFA0021B04803F09EFD10BD2DE9D5
:10542000FE4F8046894615461F46DDE90CA6002042
:1054300000900190401E0290A448D0F808B00BF1F3
:1054400009041C212046FDF7EAF9044629462046B6
:10545000FDF7E5F9044641462046FDF7E0F904462C
:1054600005F110012046FDF7DAF9044631462046E1
:10547000FDF7D5F9044600212046FDF7DCF9044686
:105480004FB1002004E0395C04F8011B411C08B254
:105490000628F8DB0AE0002005E01DF8001004F8FB
:1054A000011B411C08B20628F7DB00BF002005E005
:1054B00019F8001004F8011B411C08B2A842F7DBE0
:1054C0006EB1BAF1000F0AD0002005E01AF8001002
:1054D00004F8011B411C08B2B042F7DB00BF05F124
:1054E0001D003044401EC2B259460120FEF7D8F9D3
:1054F00002A90120FEF7B8F904F0FEFF029901604D
:105500000298BDE8FE8F38B54FF0FF3000906F482D
:105510008468002221460220FEF7C2F96946022073
:10552000FEF7A2F904F0E8FF00990160009838BD89
:105530002DE9F84304460F4615464FF0FF30009022
:105540006248866806F1090821464046FDF767F97A
:10555000804639464046FDF762F980462946404676
:10556000FDF75DF980460C2231460420FEF798F9DC
:1055700069460420FEF778F90098BDE8F8832DE924
:10558000F04F85B08246884615461E46DDF84CB081
:105590000F9F00200290009001904C48806803907B
:1055A000039800F1090451462046FDF738F90446F6
:1055B000BAF1000F09D0BAF1010F3FD0BAF1020FD2
:1055C00078D0BAF1030F38D1A3E014212046FDF7BB
:1055D00026F9044629462046FDF721F90446002114
:1055E0002046FDF728F904464EB1002004E0315C66
:1055F00004F8011B411C08B20628F8DB0AE0002071
:1056000005E01DF8001004F8011B411C08B2062833
:10561000F7DB00BF20460E99FDF701F90446002094
:1056200005E018F8001004F8011B411C08B2A8425C
:10563000F7D305F118001FFA80F9C8E020212046B1
:10564000FDF7EDF8044629462046FDF7E8F8044644
:1056500000212046FDF7EFF804464EB1002004E09B
:10566000315C04F8011B411C08B20628F8DB0AE093
:10567000002005E01DF8001004F8011B411C08B2D1
:105680000628F7DB00BF20460E99FDF7C8F8044650
:1056900005F10C012046FDF7C2F8044639462046C4
:1056A000FDF7BDF8044620461099FDF7B8F804460A
:1056B000002006E02CE018F8001004F8011B411C43
:1056C00008B2A842F7D30020029017E0F41500209A
:1056D000BF1400200004004000080040029A129805
:1056E00002FB0701002004E00A5C04F8012B421CC5
:1056F00010B2B842F8D30298401C029002980428D5
:10570000ECDB05F1240000EB87001FFA80F95EE076
:1057100000BF28212046FDF782F80446294620468E
:10572000FDF77DF8044600212046FDF784F8044685
:105730004EB1002004E0315C04F8011B411C08B2AA
:105740000628F8DB0AE0002005E01DF8001004F848
:10575000011B411C08B20628F7DB00BF20460E994A
:10576000FDF75DF8044639462046FDF758F8044633
:1057700020461099FDF753F8044620461199FDF78D
:105780004EF8044605F108012046FDF748F80446A6
:1057900059462046FDF743F80446002005E018F876
:1057A000001004F8011B411C08B2A842F7D30020E6
:1057B00005E01299095C04F8011B411C08B2584528
:1057C000F7D305F12C0058441FFA80F900BF00BF41
:1057D00009F0FF0205200399FEF762F804A90520ED
:1057E000FEF742F8049805B0BDE8F08FF8B504461E
:1057F000CE48856805F1090621463046FDF70FF8C9
:1058000006464FF0FF300090042229460620FEF79E
:1058100047F869460620FEF727F80098F8BD2DE9FD
:10582000F04104460E46C148856805F10907214646
:105830003846FCF7F4FF0746042229460720FEF706
:105840002FF831460720FEF70FF80020BDE8F08161
:105850002DE9F84F0546894616461F46DDF838B053
:10586000DDF828A0B148D0F8088008F10904242107
:105870002046FCF7D4FF044629462046FCF7CFFF1C
:10588000044649462046FCF7CAFF044631462046F6
:10589000FCF7C5FF044639462046FCF7C0FF044626
:1058A00051462046FCF7BBFF044620460B99FCF707
:1058B000B6FF044620460C99FCF7B1FF044620468B
:1058C0000D99FCF7ACFF0446002005E01BF8001022
:1058D00004F8011B411C08B24028F7D3642241465A
:1058E0000320FDF7DDFF69460320FDF7BDFF0098AB
:1058F000BDE8F88FF8B5044648F20800204048F2A9
:10590000080188420FD10020884981F8400048F200
:105910000800844201D10020F8BD48F20800844309
:1059200044F4004403E00120804981F840004FF036
:10593000FF3000907D48856805F109062146304614
:10594000FCF76DFF0646042229460820FDF7A8FF54
:1059500069460820FDF788FF0098DDE738B54FF06D
:10596000FF30009071488468002221460920FDF72D
:1059700097FF69460920FDF777FF009838BDF8B515
:1059800004464FF0FF3000906848856805F109062D
:1059900021463046FCF743FF06464FF0FF300090AB
:1059A000042229460A20FDF77BFF69460A20FDF7FD
:1059B0005BFF0098F8BD38B54FF0FF3000905B48B2
:1059C0008468002221460B20FDF76AFF69460B2000
:1059D000FDF74AFF009838BDF8B504464FF0FF3098
:1059E00000905248856805F109060CB90098F8BD89
:1059F000542020706070A070002004E0215C06F844
:105A0000011B411C08B20328F8DB032229460C20A5
:105A1000FDF746FF69460C20FDF726FF0098E6E7F4
:105A20002DE9F04186B04248FFF755F806461EB111
:105A3000304606B0BDE8F0813E4B002243210D20E8
:105A4000FEF71AF906460EB13046F2E7DFF8E480B9
:105A500008F10108374807780078C01C3549441818
:105A600033492046FFF72BF832480078401C314973
:105A7000085C102804DD2E4904F11000FFF71FF820
:105A8000E07F38B120781F2802D11F25641C03E075
:105A9000202501E02578641C26480078801C2549D3
:105AA000085C30B1012818D002282AD003283AD146
:105AB00028E0002002900390049001210590CDE998
:105AC00000101C490978891C1A4A505C00233A4688
:105AD0004146FFF754FD064625E000200290CDE93F
